:02000002B0004C
:1040000000400B0022530B00000006000C000502CC
:084010000401B41400000000DB
:0440180024500B0025
:10401C00034613F8012B002AFBD1181A01387047FC
:10402C0009480A49884208B505D0094A824202D09B
:10403C00121A00F047FF0748074A0021121A00F035
:10404C004FFF014808BD00BF3CE6032088520B001F
:10405C00A8E60320A8E60320F0E7032070B5074E7E
:10406C00074C00F073FBA41BA4080025AC4200D144
:10407C0070BD56F8043B98470135F7E740520B00EA
:10408C0064520B0000F013B808B500F021F8BDE83D
:10409C00084000F013BB00F0FFB900F005BA00783F
:1040AC00B0FA80F04009704701230370704708B5DF
:1040BC0000F054FC4FF4165100F044FC0021072092
:1040CC0000F03CFEBDE808400121052000F036BEA2
:1040DC0070B5072000F05CFE114E041E14BF0123C6
:1040EC00002333700FD000F039FC317804460A22DB
:1040FC0000F08BFA204600F07CFA0121BDE87040FC
:10410C00052000F02CBE00F029FC317805460A226F
:10411C0000F07BFA284600F06CFA2146EEE700BF6F
:10412C00B4E603200B4B0C4A10B50024C3E9004441
:10413C009A60032000F024F92146012000F028F9B0
:10414C00072000F025FE054B001B18BF012018703E
:10415C0010BD00BFA8E603200000FFFFB4E603205B
:10416C0008B5024B1B689B68019308BD68020300ED
:10417C0008B5024B1B68DB68019308BD680203009D
:10418C0008B5024B1B689B68019308BD2C02030009
:10419C0008B5024B1B68DB68019308BD2C020300B9
:1041AC0008B5024B1B681B69019308BD2C02030068
:1041BC0008B5024B1B685B69019308BD2C02030018
:1041CC0008B5024B1B685B68019308BD180203001D
:1041DC0008B5024B1B685B69019308BD180203000C
:1041EC0008B5024B1B685B6C019308BD48020300C9
:1041FC0008B5024B1B685B69019308BD64020300A0
:10420C0008B5024B1B68DB68019308BD3C02030038
:10421C0008B5024B1B681B69019308BD3C020300E7
:10422C0008B5024B1B685B69019308BD3C02030097
:10423C0008B5024B1B689B69019308BD3C02030047
:10424C0008B5024B1B68DB69019308BD3C020300F7
:10425C0008B5024B1B681B6A019308BD3C020300A6
:10426C0008B5024B1B689B6A019308BD3C02030016
:10427C0008B5024B1B681B6C019308BD3C02030084
:10428C0008B5024B1B681B6A019308BD280203008A
:10429C0008B5024B1B685B6A019308BD280203003A
:1042AC0008B5024B1B689B6A019308BD28020300EA
:1042BC0008B5024B1B68DB6A019308BD280203009A
:1042CC0008B5024B1B681B6B019308BD2802030049
:1042DC0008B5024B1B685B6B019308BD28020300F9
:1042EC0008B5024B1B681B6C019308BD2802030028
:1042FC0008B5024B1B68DB69019308BD3002030053
:10430C0008B5024B1B681B6A019308BD3002030001
:10431C0008B5024B1B681B68019308BD4C020300D7
:10432C0008B5024B1B685B68019308BD4C02030087
:10433C0008B5024B1B681B69019308BD4C020300B6
:10434C0008B5024B1B685B69019308BD4C02030066
:10435C0008B5024B1B689B69019308BD4C02030016
:10436C0008B5024B1B68DB69019308BD4C020300C6
:10437C0008B5024B1B681B6A019308BD4C02030075
:10438C0008B5024B1B685B68019308BD2002030053
:10439C0008B5024B1B68DB6A019308BD20020300C1
:1043AC0008B5034B1B68D3F88830019308BD000097
:1043BC002002030008B5034B1B68D3F8943001931B
:1043CC0008BD00002002030008B5024B1B685B68A7
:1043DC00019308BD4002030008B5024B1B689B68A3
:1043EC00019308BD4002030008B5024B1B68DB6853
:1043FC00019308BD4002030008B5024B1B681B6902
:10440C00019308BD4002030008B5024B1B685B69B1
:10441C00019308BD4002030008B5024B1B689B6961
:10442C00019308BD4002030008B5024B1B68DB6911
:10443C00019308BD4002030008B5024B1B681B6AC0
:10444C00019308BD4002030008B5024B1B681B6BAF
:10445C00019308BD4002030008B5024B1B685B6B5F
:10446C00019308BD4002030008B5024B1B681B6C8E
:10447C00019308BD4002030008B5024B1B685B6C3E
:10448C00019308BD4002030008B5024B1B68DB6BAF
:10449C00019308BD4402030008B5024B1B681B685E
:1044AC00019308BD1C02030008B5024B1B685B6836
:1044BC00019308BD1C02030008B5024B1B681B6C62
:1044CC00019308BD1C02030008B5024B1B685B6C12
:1044DC00019308BD1C020300002240681146FFF73F
:1044EC00ABBF002240681146FFF7B6BF4068002200
:1044FC00FFF7AABF4068002281F00101FFF794BFCB
:10450C00002340681A461946FFF786BF002340680F
:10451C001A461946FFF778BF002240681146FFF78C
:10452C006BBF002240681146FFF756BF406800225F
:10453C000221FFF759BF002340681A46FFF744BF1A
:10454C00024B03225A60024A1A607047B8E60320F5
:10455C0040500B0010B5044608462170FFF7C8FE0A
:10456C0000236360204610BD054B02221A60054BE8
:10457C00054A9A600020C3E90000FFF701BF00BFA5
:10458C00CCE60320C0E603200000FFFF0248002316
:10459C000360FFF725BE00BFD0E60320F8B5064642
:1045AC000D468F180024BD420CD0336815F8011B42
:1045BC009B6830469847031E01DB1C44F3E7002C34
:1045CC0008BF1C462046F8BD13B50446084659B131
:1045DC000191FFF71DFD23680199DB680246204617
:1045EC0002B0BDE81040184702B010BD03689B68CC
:1045FC00184738B50D210546FFF7F8FF0A21044688
:10460C002846FFF7F3FF204438BD30B58BB00023AC
:10461C00012A8DF8243098BF0A2209AC0D46B1FB53
:10462C00F2F101FB125303F0FF03092B94BF30335B
:10463C003733DBB2AA4204F8013DEFD92146FFF72C
:10464C00C3FF0BB030BD0000014B024A1A6070472B
:10465C00D4E6032074500B00024B1A68024B1A600C
:10466C00704700BF3CE60320D8E60320014B002234
:10467C009A607047DCE60320014B1860704700BF5E
:10468C0040E6032008B50B4B43B100F067F9036813
:10469C001B699847002801DDAFF30080064B43B13E
:1046AC0000F0A4FB03681B699847002801DDAFF3F9
:1046BC00008008BD000000000000000008B5FFF7F6
:1046CC00E1FFFFF785FD014B186008BD40E70320B3
:1046DC000548064A064908B5121A00F0F3FB054BCB
:1046EC00054A1A6008BD00BF00F4032004F403203F
:1046FC00F4520B0000F403201E1C279A07B500236C
:10470C0000931A466FF07701FFF754FE03B05DF883
:10471C0004FB000007B543880A2B08D0502B0BD1A3
:10472C00094B1B684BB103B05DF804EB1847FFF75E
:10473C00E5FF03B05DF804FB002300931A466FF00D
:10474C007701FFF737FEF4E7F0E6032010B51248C7
:10475C000021FFF7B9FE114B1A68114B9A42114B0D
:10476C000CBF012200221A7001D0FFF7B1FFFFF736
:10477C0027FD044600F0BCFB0B4B13B12046AFF3F6
:10478C00008000210848FFF77FFEBDE81040074875
:10479C000021FFF705BE00BF85460B0000F4032087
:1047AC001E1C279AECE603200000000021470B009A
:1047BC00704710B518210446FFF76FFC204610BD5A
:1047CC00F0B5037D062B8DB00E4600F104074FF0BB
:1047DC00000412D000F1080515F8011D0A2230461C
:1047EC00FFF713FFAF42044419D0002CF4D02E2154
:1047FC003046FFF7FBFE0444EEE72F236A463946AA
:10480C000A208DF80040FFF7F3FC6846FFF700FC28
:10481C0033680246DB6869463046984704462046B2
:10482C000DB0F0BD10B5054B0446112240F8043B09
:10483C00002100F055FB204610BD00BF9C500B0022
:10484C000346074A10B543F8042B01F1100251F846
:10485C00044B43F8044B9142F9D10A781A7010BDFD
:10486C009C500B0010B59DF8084044EA032343EA22
:10487C00024242EA016104234160037510BD00004D
:10488C0007B5064B0360CB7800938B784A78097890
:10489C00FFF7E8FF03B05DF804FB00BF9C500B0072
:1048AC00417470477047704708B50021007CFFF7D2
:1048BC004FFD40EAE07008BD08B50121007CFFF710
:1048CC0047FD40EAE07008BD08B5007CFFF738FDF5
:1048DC0020EAE07008BD08B5007CFFF729FD20EA4E
:1048EC00E07008BD13B50446007C0191FFF728FD6C
:1048FC000028019901DC607C20B1207CFFF730FDA1
:10490C0020EAE07002B010BD007CFFF731BD10B59D
:10491C0014210446FFF7C1FB204610BD10B54FF41F
:10492C007A73044608460021C4E90113044B236042
:10493C000123207463741146FFF7EAFC204610BD76
:10494C00B0500B00007C0022FFF7EABC10B514221B
:10495C000446002100F0C4FA204610BD10B50F4CDF
:10496C0088B003A8FFF7F2FF2178BFF35B8F11F03B
:10497C0001010FD120460191FFF791FB019948B13C
:10498C0003AA0748FFF7CAFF2046FFF78DFB05482F
:10499C0000F092FA024808B010BD00BFF4E6032004
:1049AC00F8E60320B1480B0070474174704708B516
:1049BC00007CFFF755FC20EAE07008BD08B5007CD0
:1049CC00FFF726FC20EAE07008BD08B5007CFFF775
:1049DC002FFC40EAE07008BD08B5007CFFF720FC16
:1049EC0040EAE07008BD007CFFF72ABC37B5457C77
:1049FC0004462DB1207C03B0BDE83040FFF700BC6D
:104A0C00007C0191FFF72CFC00280199F2DC284670
:104A1C0003B030BD10B514210446FFF73EFB204611
:104A2C0010BD000010B54FF47A73044608461146C9
:104A3C000022C4E90123044B236001232074637416
:104A4C00FFF716FC204610BDE0500B007047F8B580
:104A5C00064615460C468F18BC4206D0336814F82F
:104A6C00011B9B6830469847F6E72846F8BD007C4A
:104A7C000022FFF705BC007C0021FFF709BC007C7D
:104A8C000021FFF70DBC007C0021FFF711BC007C5E
:104A9C000021FFF715BC10B514210446FFF7FDFAF1
:104AAC00204610BD38B5044615464FF47A730022E3
:104ABC00C4E90123094B2174084623602946FFF7FA
:104ACC000FFCBF3008D16B69DB0705D56868FFF7B1
:104ADC00EBFCE868FFF7E8FC204638BD10510B00F2
:104AEC00002240681146FFF787BC0022406811463F
:104AFC00FFF7A2BC002240681146FFF7ADBC40682E
:104B0C000022FFF7A1BC4068002281F00101FFF7F1
:104B1C008BBC002340681A461946FFF77DBC002366
:104B2C0040681A461946FFF76FBC002240681146D0
:104B3C00FFF752BC406800220221FFF755BC00234E
:104B4C0040681A46FFF740BC024B04225A60024AE6
:104B5C001A6070470CE7032038510B0000234068A3
:104B6C001A46FFF731BC406800220221FFF73CBC1B
:104B7C00002240681146FFF72FBC00224068114606
:104B8C00FFF73ABC002340681A461946FFF73CBCB5
:104B9C00002340681A461946FFF73EBC40680021C6
:104BAC00FFF762BC40680021FFF766BC406800223A
:104BBC0081F00101FFF738BC40680022FFF744BCCC
:104BCC00002240681146FFF747BC0022406811469E
:104BDC00FFF732BC2DE9F04395B014460D4607465D
:104BEC00FFF720FE00211C220DA8009100F078F99F
:104BFC0040230C9320466B460CAA0021FFF7B8FA11
:104C0C00044600284BD1024601216868FFF7F4FBEB
:104C1C000221804622466868FFF7EEFB009E814623
:104C2C002146002E3BD0002939D17368022B03D0CA
:104C3C000A2B11D0F669F4E7B8F1000FFAD07169BC
:104C4C0006A8043107ADFFF71BFE0FCD3C1D0FC4AA
:104C5C002B6823704146EDE7B9F1000FEAD0746977
:104C6C00102201A800F03CF906238DF8143001AD98
:104C7C0004F108031834186859682A4603C208332B
:104C8C00A3421546F7D101A906A807ADFFF7D8FD39
:104C9C000FCD3C1D0FC42B6823704946CAE7009802
:104CAC00FFF75EFA384615B0BDE8F083024B034AB5
:104CBC001A6000225A60704714E7032074510B00ED
:104CCC00232813B502D9002002B010BDA0F10B03AC
:104CDC00022B1AD8174C2178BFF35B8F11F001010E
:104CEC000BD120460191FFF7DAF9019928B112484E
:104CFC00FFF730FC2046FFF7D7F90F4B1878FFF77A
:104D0C00FFFA0028DFD10120DEE7012809D800F0E6
:104D1C00ADF80021007CFFF7DBFA80F00100C0B297
:104D2C00D2E709380128EED800F060F8007CFFF7D4
:104D3C008FFAF2E71CE7032020E70320232838B57D
:104D4C0004460D460AD8FF2908D0FFF7B9FF28B151
:104D5C0029462046BDE83840FFF712BA38BD38B5B1
:104D6C0004460D46FFF714FAFF2810D0062804D885
:104D7C004D2323FA00F0C30709D42046FFF7A0FF08
:104D8C0028B129462046BDE83840FFF709BA38BD9E
:104D9C0010B50446FFF7FCF9031FDBB2012B08D951
:104DAC002046FFF78DFF20B12046BDE81040FFF7ED
:104DBC00FFB9002010BD704738B5044614252A46AB
:104DCC00002100F08DF825804025074925812846D3
:104DDC00258200F06FF804496060284600F06AF8FC
:104DEC00E060204638BD00BFA8510B0030B50E4D19
:104DFC002978BFF35B8F11F0010487B011D12846DD
:104E0C00FFF74DF968B101A8FFF7D6FF01AA2146BB
:104E1C000648FFF707FE2846FFF746F9044800F05E
:104E2C004BF8024807B030BD28E703202CE70320DD
:104E3C00C34D0B007047000038B50A4B03600123CB
:104E4C00044643610849202000F034F820256060B6
:104E5C000549A560284600F02DF8C4E90305204655
:104E6C0038BD00BF18000100A8510B0030B50E4D25
:104E7C002978BFF35B8F11F0010487B011D128465C
:104E8C00FFF70DF968B16846FFF7D6FF6A46214671
:104E9C000648FFF707FE2846FFF706F9044800F01E
:104EAC000BF8024807B030BD44E7032048E7032065
:104EBC00414E0B00FFF7EFB8002301461A46184687
:104ECC0000F044B80A44914200F1FF3300D170471E
:104EDC0010B511F8014B03F8014F9142F9D110BDF7
:104EEC0002440346934200D1704703F8011BF9E7D3
:104EFC0038B5104B1D68AB6B0446B3B91820FFF7DF
:104F0C00CBFA0246A86320B90B4B0C484221FFF7A1
:104F1C00D3FA0B490B4BC0E900130B4B83600B23EB
:104F2C00838100210120C2E90401AB6B00221C61CA
:104F3C005A6138BD40E60320A9510B00C0510B004B
:104F4C000E33CDAB34126DE6ECDE05002DE9F843E3
:104F5C00DFF8B8800646D8F800001F460D4691468B
:104F6C0000F056F8254B1C6834B9254C1C60254BB9
:104F7C0013B11B68C4F8883063681F2B07DDD8F8A1
:104F8C00000000F047F84FF0FF30BDE8F8834EB357
:104F9C00D4F8880088B91C4B23B9D8F8000000F06D
:104FAC0038F8F0E74FF48470FFF776FA0028F4D065
:104FBC000023C0E94033C4F88800636840F82390AC
:104FCC0001229A4000EB8301D0F800311343C0F862
:104FDC000031022EC1F8807002BFD0F804311343A7
:104FEC00C0F804316368D8F800005A1C02336260C0
:104FFC0044F8235000F00EF80020C6E7E8E7032041
:10500C005CE7032000000000A5440B00A4E603208D
:10501C0070477047704700002D400B0069400B0033
:10502C0091400B0095400B000000000000000000B8
:10503C000000000043450B0039450B002F450B00C9
:10504C0025450B0019450B000D450B00A94B0B001A
:10505C00B14B0B0001450B00F9440B00EF440B0066
:10506C00E5440B00E14B0B006170700025592D25B8
:10507C006D2D25645425483A254D3A2553257A0043
:10508C0061736374696D650000000000000000002E
:10509C00CD470B00BD470B00BF470B0000000000C5
:1050AC0000000000B3480B001B490B00F1480B003B
:1050BC00A9450B00E3480B00B5480B00C5480B0095
:1050CC0015490B00D5480B00AD480B000000000043
:1050DC0000000000B5490B00214A0B00F9490B00F8
:1050EC00A9450B00C9490B00E5490B00D7490B003A
:1050FC00F3490B00B7490B00BB490B000000000043
:10510C0000000000594A0B00A34A0B007B4A0B001D
:10511C005B4A0B00834A0B008B4A0B00934A0B0033
:10512C009B4A0B0000000000000000004B4B0B00E2
:10513C00414B0B00374B0B00ED4A0B002B4B0B007C
:10514C001F4B0B00A94B0B00B14B0B00134B0B006F
:10515C000B4B0B00014B0B00F74A0B00E14B0B0008
:10516C000000000000000000694B0B00734B0B00AB
:10517C007D4B0B00874B0B00914B0B009D4B0B0099
:10518C00A94B0B00B14B0B00B94B0B00C54B0B00E3
:10519C00CD4B0B00D74B0B00E14B0B0000524545A0
:1051AC004E54206D616C6C6F632073756363656521
:1051BC00646564002F6D6E742F776F726B73706102
:1051CC0063652F776F726B73706163652F47434311
:1051DC002D31302D706970656C696E652F6A656E46
:1051EC006B696E732D4743432D31302D706970659B
:1051FC006C696E652D34385F323032303131323477
:10520C005F313630363138303634312F7372632F8C
:10521C006E65776C69622F6E65776C69622F6C694D
:10522C0062632F7374646C69622F72616E642E6397
:10523C000000000031410B004D450B0075450B0083
:10524C0099450B0055460B0065460B0079460B0043
:08525C00554B0B00B94C0B008F
:10526400040000001400000003000000474E550035
:10527400E3F6FFBEF5249DB6F47C2114009A4E3269
:04528400217225B1BD
:105288008C500B0044E603200000000000000000E2
:105298000000000000000000000000000000000006
:1052A80000000000000000000000000000000000F6
:1052B80000000000000000000000000000000000E6
:1052C80000000000000000000000000000000000D6
:1052D80000000000000000000000000000000000C6
:0C52E8000000000000000000ECE70320C4
:0452F40000000000B6
:1052FE0000000102030405060708090A0B0C0D0E37
:10530E000F101112131415161718191A1B1C1D1E27
:04531E001F20280024
:045322007856341273
:04000003B000401CED
:00000001FF
